{
    "contractName": "PetCreator",
    "abi": [
        {
            "inputs": [
                {
                    "internalType": "string",
                    "name": "name",
                    "type": "string"
                },
                {
                    "internalType": "string",
                    "name": "symbol",
                    "type": "string"
                }
            ],
            "stateMutability": "nonpayable",
            "type": "constructor"
        },
        {
            "anonymous": false,
            "inputs": [
                {
                    "indexed": true,
                    "internalType": "address",
                    "name": "owner",
                    "type": "address"
                },
                {
                    "indexed": true,
                    "internalType": "address",
                    "name": "approved",
                    "type": "address"
                },
                {
                    "indexed": true,
                    "internalType": "uint256",
                    "name": "tokenId",
                    "type": "uint256"
                }
            ],
            "name": "Approval",
            "type": "event"
        },
        {
            "anonymous": false,
            "inputs": [
                {
                    "indexed": true,
                    "internalType": "address",
                    "name": "owner",
                    "type": "address"
                },
                {
                    "indexed": true,
                    "internalType": "address",
                    "name": "operator",
                    "type": "address"
                },
                {
                    "indexed": false,
                    "internalType": "bool",
                    "name": "approved",
                    "type": "bool"
                }
            ],
            "name": "ApprovalForAll",
            "type": "event"
        },
        {
            "anonymous": false,
            "inputs": [
                {
                    "indexed": false,
                    "internalType": "uint256",
                    "name": "petId",
                    "type": "uint256"
                },
                {
                    "indexed": false,
                    "internalType": "string",
                    "name": "name",
                    "type": "string"
                }
            ],
            "name": "NewPet",
            "type": "event"
        },
        {
            "anonymous": false,
            "inputs": [
                {
                    "indexed": true,
                    "internalType": "address",
                    "name": "previousOwner",
                    "type": "address"
                },
                {
                    "indexed": true,
                    "internalType": "address",
                    "name": "newOwner",
                    "type": "address"
                }
            ],
            "name": "OwnershipTransferred",
            "type": "event"
        },
        {
            "anonymous": false,
            "inputs": [
                {
                    "indexed": true,
                    "internalType": "address",
                    "name": "from",
                    "type": "address"
                },
                {
                    "indexed": true,
                    "internalType": "address",
                    "name": "to",
                    "type": "address"
                },
                {
                    "indexed": true,
                    "internalType": "uint256",
                    "name": "tokenId",
                    "type": "uint256"
                }
            ],
            "name": "Transfer",
            "type": "event"
        },
        {
            "inputs": [
                {
                    "internalType": "uint256",
                    "name": "",
                    "type": "uint256"
                }
            ],
            "name": "allPets",
            "outputs": [
                {
                    "internalType": "string",
                    "name": "name",
                    "type": "string"
                },
                {
                    "internalType": "uint256",
                    "name": "id",
                    "type": "uint256"
                },
                {
                    "internalType": "uint32",
                    "name": "level",
                    "type": "uint32"
                },
                {
                    "internalType": "uint256",
                    "name": "foodInStomach",
                    "type": "uint256"
                },
                {
                    "internalType": "uint256",
                    "name": "stomachSize",
                    "type": "uint256"
                },
                {
                    "internalType": "uint256",
                    "name": "lastFeedingTime",
                    "type": "uint256"
                },
                {
                    "internalType": "uint256",
                    "name": "readyToFood",
                    "type": "uint256"
                },
                {
                    "internalType": "uint256",
                    "name": "endurance",
                    "type": "uint256"
                }
            ],
            "stateMutability": "view",
            "type": "function"
        },
        {
            "inputs": [
                {
                    "internalType": "address",
                    "name": "to",
                    "type": "address"
                },
                {
                    "internalType": "uint256",
                    "name": "tokenId",
                    "type": "uint256"
                }
            ],
            "name": "approve",
            "outputs": [],
            "stateMutability": "nonpayable",
            "type": "function"
        },
        {
            "inputs": [
                {
                    "internalType": "address",
                    "name": "owner",
                    "type": "address"
                }
            ],
            "name": "balanceOf",
            "outputs": [
                {
                    "internalType": "uint256",
                    "name": "",
                    "type": "uint256"
                }
            ],
            "stateMutability": "view",
            "type": "function"
        },
        {
            "inputs": [
                {
                    "internalType": "uint256",
                    "name": "petId",
                    "type": "uint256"
                }
            ],
            "name": "feedPet",
            "outputs": [],
            "stateMutability": "nonpayable",
            "type": "function"
        },
        {
            "inputs": [
                {
                    "internalType": "uint256",
                    "name": "tokenId",
                    "type": "uint256"
                }
            ],
            "name": "getApproved",
            "outputs": [
                {
                    "internalType": "address",
                    "name": "",
                    "type": "address"
                }
            ],
            "stateMutability": "view",
            "type": "function"
        },
        {
            "inputs": [
                {
                    "internalType": "address",
                    "name": "owner",
                    "type": "address"
                },
                {
                    "internalType": "address",
                    "name": "operator",
                    "type": "address"
                }
            ],
            "name": "isApprovedForAll",
            "outputs": [
                {
                    "internalType": "bool",
                    "name": "",
                    "type": "bool"
                }
            ],
            "stateMutability": "view",
            "type": "function"
        },
        {
            "inputs": [
                {
                    "internalType": "uint256",
                    "name": "petId",
                    "type": "uint256"
                }
            ],
            "name": "levelUp",
            "outputs": [],
            "stateMutability": "nonpayable",
            "type": "function"
        },
        {
            "inputs": [],
            "name": "name",
            "outputs": [
                {
                    "internalType": "string",
                    "name": "",
                    "type": "string"
                }
            ],
            "stateMutability": "view",
            "type": "function"
        },
        {
            "inputs": [
                {
                    "internalType": "string",
                    "name": "_name",
                    "type": "string"
                }
            ],
            "name": "newPet",
            "outputs": [],
            "stateMutability": "payable",
            "type": "function"
        },
        {
            "inputs": [],
            "name": "newPetFromPoop",
            "outputs": [],
            "stateMutability": "nonpayable",
            "type": "function"
        },
        {
            "inputs": [],
            "name": "owner",
            "outputs": [
                {
                    "internalType": "address",
                    "name": "",
                    "type": "address"
                }
            ],
            "stateMutability": "view",
            "type": "function"
        },
        {
            "inputs": [
                {
                    "internalType": "uint256",
                    "name": "tokenId",
                    "type": "uint256"
                }
            ],
            "name": "ownerOf",
            "outputs": [
                {
                    "internalType": "address",
                    "name": "",
                    "type": "address"
                }
            ],
            "stateMutability": "view",
            "type": "function"
        },
        {
            "inputs": [
                {
                    "internalType": "uint256",
                    "name": "petId",
                    "type": "uint256"
                }
            ],
            "name": "petPoop",
            "outputs": [],
            "stateMutability": "nonpayable",
            "type": "function"
        },
        {
            "inputs": [],
            "name": "renounceOwnership",
            "outputs": [],
            "stateMutability": "nonpayable",
            "type": "function"
        },
        {
            "inputs": [
                {
                    "internalType": "address",
                    "name": "from",
                    "type": "address"
                },
                {
                    "internalType": "address",
                    "name": "to",
                    "type": "address"
                },
                {
                    "internalType": "uint256",
                    "name": "tokenId",
                    "type": "uint256"
                }
            ],
            "name": "safeTransferFrom",
            "outputs": [],
            "stateMutability": "nonpayable",
            "type": "function"
        },
        {
            "inputs": [
                {
                    "internalType": "address",
                    "name": "from",
                    "type": "address"
                },
                {
                    "internalType": "address",
                    "name": "to",
                    "type": "address"
                },
                {
                    "internalType": "uint256",
                    "name": "tokenId",
                    "type": "uint256"
                },
                {
                    "internalType": "bytes",
                    "name": "_data",
                    "type": "bytes"
                }
            ],
            "name": "safeTransferFrom",
            "outputs": [],
            "stateMutability": "nonpayable",
            "type": "function"
        },
        {
            "inputs": [
                {
                    "internalType": "uint256",
                    "name": "petId",
                    "type": "uint256"
                },
                {
                    "internalType": "address",
                    "name": "_to",
                    "type": "address"
                }
            ],
            "name": "sellPet",
            "outputs": [],
            "stateMutability": "nonpayable",
            "type": "function"
        },
        {
            "inputs": [],
            "name": "sellPoop",
            "outputs": [],
            "stateMutability": "nonpayable",
            "type": "function"
        },
        {
            "inputs": [
                {
                    "internalType": "address",
                    "name": "operator",
                    "type": "address"
                },
                {
                    "internalType": "bool",
                    "name": "approved",
                    "type": "bool"
                }
            ],
            "name": "setApprovalForAll",
            "outputs": [],
            "stateMutability": "nonpayable",
            "type": "function"
        },
        {
            "inputs": [
                {
                    "internalType": "uint256",
                    "name": "petId",
                    "type": "uint256"
                },
                {
                    "internalType": "string",
                    "name": "_name",
                    "type": "string"
                }
            ],
            "name": "setName",
            "outputs": [],
            "stateMutability": "nonpayable",
            "type": "function"
        },
        {
            "inputs": [
                {
                    "internalType": "bytes4",
                    "name": "interfaceId",
                    "type": "bytes4"
                }
            ],
            "name": "supportsInterface",
            "outputs": [
                {
                    "internalType": "bool",
                    "name": "",
                    "type": "bool"
                }
            ],
            "stateMutability": "view",
            "type": "function"
        },
        {
            "inputs": [],
            "name": "symbol",
            "outputs": [
                {
                    "internalType": "string",
                    "name": "",
                    "type": "string"
                }
            ],
            "stateMutability": "view",
            "type": "function"
        },
        {
            "inputs": [
                {
                    "internalType": "uint256",
                    "name": "tokenId",
                    "type": "uint256"
                }
            ],
            "name": "tokenURI",
            "outputs": [
                {
                    "internalType": "string",
                    "name": "",
                    "type": "string"
                }
            ],
            "stateMutability": "view",
            "type": "function"
        },
        {
            "inputs": [
                {
                    "internalType": "address",
                    "name": "from",
                    "type": "address"
                },
                {
                    "internalType": "address",
                    "name": "to",
                    "type": "address"
                },
                {
                    "internalType": "uint256",
                    "name": "tokenId",
                    "type": "uint256"
                }
            ],
            "name": "transferFrom",
            "outputs": [],
            "stateMutability": "nonpayable",
            "type": "function"
        },
        {
            "inputs": [
                {
                    "internalType": "address",
                    "name": "newOwner",
                    "type": "address"
                }
            ],
            "name": "transferOwnership",
            "outputs": [],
            "stateMutability": "nonpayable",
            "type": "function"
        }
    ],
    "bytecode": "608060405260006007556064600855670de0b6b3a76400006009553480156200002757600080fd5b5060405162002bd638038062002bd68339810160408190526200004a9162000245565b81518290829062000063906000906020850190620000f4565b50805162000079906001906020840190620000f4565b50505062000096620000906200009e60201b60201c565b620000a2565b5050620002ff565b3390565b600680546001600160a01b038381166001600160a01b0319831681179093556040519116919082907f8be0079c531659141344cd1fd0a4f28419497f9722a3daafe3b4186f6b6457e090600090a35050565b8280546200010290620002ac565b90600052602060002090601f01602090048101928262000126576000855562000171565b82601f106200014157805160ff191683800117855562000171565b8280016001018555821562000171579182015b828111156200017157825182559160200191906001019062000154565b506200017f92915062000183565b5090565b5b808211156200017f576000815560010162000184565b600082601f830112620001ab578081fd5b81516001600160401b0380821115620001c857620001c8620002e9565b6040516020601f8401601f1916820181018381118382101715620001f057620001f0620002e9565b604052838252858401810187101562000207578485fd5b8492505b838310156200022a57858301810151828401820152918201916200020b565b838311156200023b57848185840101525b5095945050505050565b6000806040838503121562000258578182fd5b82516001600160401b03808211156200026f578384fd5b6200027d868387016200019a565b9350602085015191508082111562000293578283fd5b50620002a2858286016200019a565b9150509250929050565b600281046001821680620002c157607f821691505b60208210811415620002e357634e487b7160e01b600052602260045260246000fd5b50919050565b634e487b7160e01b600052604160045260246000fd5b6128c7806200030f6000396000f3fe6080604052600436106101665760003560e01c806370a08231116100d1578063c47d7ce61161008a578063e985e9c511610064578063e985e9c51461040f578063f2fde38b1461042f578063fbfabac41461044f578063fe55932a1461046f57610166565b8063c47d7ce6146103a8578063c81b43b1146103bb578063c87b56dd146103ef57610166565b806370a08231146102fc578063715018a6146103295780638da5cb5b1461033e57806395d89b4114610353578063a22cb46514610368578063b88d4fde1461038857610166565b806323b872dd1161012357806323b872dd14610247578063329461b01461026757806342842e0e14610287578063525a77b3146102a75780636352211e146102c757806366203c4f146102e757610166565b806301ffc9a71461016b57806306fdde03146101a1578063081812fc146101c3578063095ea7b3146101f05780630ce90ec2146102125780630cf9b87214610232575b600080fd5b34801561017757600080fd5b5061018b610186366004611e76565b61048f565b604051610198919061200c565b60405180910390f35b3480156101ad57600080fd5b506101b66104d7565b6040516101989190612017565b3480156101cf57600080fd5b506101e36101de366004611ee1565b610569565b6040516101989190611fbb565b3480156101fc57600080fd5b5061021061020b366004611e4d565b6105b5565b005b34801561021e57600080fd5b5061021061022d366004611ee1565b61064d565b34801561023e57600080fd5b50610210610723565b34801561025357600080fd5b50610210610262366004611d5f565b61090a565b34801561027357600080fd5b50610210610282366004611ef9565b610942565b34801561029357600080fd5b506102106102a2366004611d5f565b610985565b3480156102b357600080fd5b506102106102c2366004611ee1565b6109a0565b3480156102d357600080fd5b506101e36102e2366004611ee1565b610aef565b3480156102f357600080fd5b50610210610b24565b34801561030857600080fd5b5061031c610317366004611d13565b610b65565b604051610198919061268c565b34801561033557600080fd5b50610210610ba9565b34801561034a57600080fd5b506101e3610bf2565b34801561035f57600080fd5b506101b6610c01565b34801561037457600080fd5b50610210610383366004611e13565b610c10565b34801561039457600080fd5b506102106103a3366004611d9a565b610c22565b6102106103b6366004611eae565b610c61565b3480156103c757600080fd5b506103db6103d6366004611ee1565b610e17565b60405161019898979695949392919061202a565b3480156103fb57600080fd5b506101b661040a366004611ee1565b610f00565b34801561041b57600080fd5b5061018b61042a366004611d2d565b610f83565b34801561043b57600080fd5b5061021061044a366004611d13565b610fb3565b34801561045b57600080fd5b5061021061046a366004611ee1565b611024565b34801561047b57600080fd5b5061021061048a366004611f1b565b611139565b60006001600160e01b031982166380ac58cd60e01b14806104c057506001600160e01b03198216635b5e139f60e01b145b806104cf57506104cf826112e3565b90505b919050565b6060600080546104e69061278b565b80601f01602080910402602001604051908101604052809291908181526020018280546105129061278b565b801561055f5780601f106105345761010080835404028352916020019161055f565b820191906000526020600020905b81548152906001019060200180831161054257829003601f168201915b5050505050905090565b6000610574826112fc565b6105995760405162461bcd60e51b815260040161059090612452565b60405180910390fd5b506000908152600460205260409020546001600160a01b031690565b60006105c082610aef565b9050806001600160a01b0316836001600160a01b031614156105f45760405162461bcd60e51b8152600401610590906125cb565b806001600160a01b0316610606611319565b6001600160a01b0316148061062257506106228161042a611319565b61063e5760405162461bcd60e51b8152600401610590906122eb565b610648838361131d565b505050565b6000600a828154811061067057634e487b7160e01b600052603260045260246000fd5b9060005260206000209060080201905080600401548160030154146106a75760405162461bcd60e51b8152600401610590906122b4565b60028101805463ffffffff169060006106bf836127e1565b91906101000a81548163ffffffff021916908363ffffffff160217905550506000816003018190555060028160040160008282546106fd91906126da565b92505081905550611c2081600701600082825461071a91906126ae565b90915550505050565b61072b611319565b6001600160a01b031661073c610bf2565b6001600160a01b0316146107625760405162461bcd60e51b8152600401610590906124fe565b600854336000908152600c602052604090205460ff16116107955760405162461bcd60e51b815260040161059090612348565b336000908152600c602052604081208054606492906107b890849060ff1661273c565b825460ff91821661010093840a908102920219161790915560408051610140810182526007928101838152666e6f5f6e616d6560c81b610120830152815291546020808401919091526001918301829052600060608401819052600260808501524260a085015260c0840181905261384060e0850152600a8054938401815590528251805193945060089092027fc65a7bb8d6351c1cf70c95a316cc6a92839c986682d98bc35f958f4883f9d2a801926108759284920190611bd4565b50602082810151600183015560408084015160028401805463ffffffff90921663ffffffff19909216919091179055606084015160038401556080840151600484015560a0840151600584015560c0840151600684015560e09093015160079283015581546000908152600b90915291822080546001600160a01b03191633179055805491610903836127c6565b9190505550565b61091b610915611319565b8261138b565b6109375760405162461bcd60e51b81526004016105909061263b565b610648838383611410565b61094a611319565b6001600160a01b031661095b610bf2565b6001600160a01b0316146109815760405162461bcd60e51b8152600401610590906124fe565b5050565b61064883838360405180602001604052806000815250610c22565b6002600a82815481106109c357634e487b7160e01b600052603260045260246000fd5b9060005260206000209060080201600401546109df91906126c6565b600a8281548110610a0057634e487b7160e01b600052603260045260246000fd5b9060005260206000209060080201600301541015610a305760405162461bcd60e51b81526004016105909061207b565b336000908152600c60205260408120805460ff1691610a4e83612805565b91906101000a81548160ff021916908360ff160217905550506002600a8281548110610a8a57634e487b7160e01b600052603260045260246000fd5b906000526020600020906008020160040154610aa691906126c6565b600a8281548110610ac757634e487b7160e01b600052603260045260246000fd5b90600052602060002090600802016003016000828254610ae79190612725565b909155505050565b6000818152600260205260408120546001600160a01b0316806104cf5760405162461bcd60e51b8152600401610590906123d4565b610b2c611319565b6001600160a01b0316610b3d610bf2565b6001600160a01b031614610b635760405162461bcd60e51b8152600401610590906124fe565b565b60006001600160a01b038216610b8d5760405162461bcd60e51b81526004016105909061238a565b506001600160a01b031660009081526003602052604090205490565b610bb1611319565b6001600160a01b0316610bc2610bf2565b6001600160a01b031614610be85760405162461bcd60e51b8152600401610590906124fe565b610b63600061153d565b6006546001600160a01b031690565b6060600180546104e69061278b565b610981610c1b611319565b838361158f565b610c33610c2d611319565b8361138b565b610c4f5760405162461bcd60e51b81526004016105909061263b565b610c5b84848484611632565b50505050565b610c69611319565b6001600160a01b0316610c7a610bf2565b6001600160a01b031614610ca05760405162461bcd60e51b8152600401610590906124fe565b6009543414610cae57600080fd5b610cba33600754611665565b60408051610100810182528281526007546020808301919091526001928201839052600060608301819052600260808401524260a084015260c0830181905261384060e0840152600a8054948501815590528151805192936008027fc65a7bb8d6351c1cf70c95a316cc6a92839c986682d98bc35f958f4883f9d2a80192610d459284920190611bd4565b50602082810151600183015560408084015160028401805463ffffffff90921663ffffffff19909216919091179055606084015160038401556080840151600484015560a0840151600584015560c0840151600684015560e09093015160079283015581546000908152600b90915282902080546001600160a01b031916331790555490517f2d1290ac7e468aef52fc49096417955764c2cd7b335d24fd818436c68d6e0f0491610df7918490612695565b60405180910390a160078054906000610e0f836127c6565b919050555050565b600a8181548110610e2757600080fd5b9060005260206000209060080201600091509050806000018054610e4a9061278b565b80601f0160208091040260200160405190810160405280929190818152602001828054610e769061278b565b8015610ec35780601f10610e9857610100808354040283529160200191610ec3565b820191906000526020600020905b815481529060010190602001808311610ea657829003601f168201915b505050506001830154600284015460038501546004860154600587015460068801546007909801549697949663ffffffff90941695509193909288565b6060610f0b826112fc565b610f275760405162461bcd60e51b81526004016105909061257c565b6000610f3161167f565b90506000815111610f515760405180602001604052806000815250610f7c565b80610f5b84611691565b604051602001610f6c929190611f8c565b6040516020818303038152906040525b9392505050565b6001600160a01b0380831660009081526005602090815260408083209385168352929052205460ff165b92915050565b610fbb611319565b6001600160a01b0316610fcc610bf2565b6001600160a01b031614610ff25760405162461bcd60e51b8152600401610590906124fe565b6001600160a01b0381166110185760405162461bcd60e51b815260040161059090612104565b6110218161153d565b50565b61102d816117ac565b6110495760405162461bcd60e51b8152600401610590906124c7565b611052816117fd565b61106e5760405162461bcd60e51b81526004016105909061249e565b600a818154811061108f57634e487b7160e01b600052603260045260246000fd5b906000526020600020906008020160030154600a82815481106110c257634e487b7160e01b600052603260045260246000fd5b906000526020600020906008020160040154116110f15760405162461bcd60e51b815260040161059090612245565b6110fa8161183c565b600a818154811061111b57634e487b7160e01b600052603260045260246000fd5b600091825260208220600360089092020101805491610e0f836127c6565b611141611319565b6001600160a01b0316611152610bf2565b6001600160a01b0316146111785760405162461bcd60e51b8152600401610590906124fe565b6000828152600b60205260409020546001600160a01b031633146111ae5760405162461bcd60e51b815260040161059090612181565b611281600a83815481106111d257634e487b7160e01b600052603260045260246000fd5b906000526020600020906008020160000180546111ee9061278b565b80601f016020809104026020016040519081016040528092919081815260200182805461121a9061278b565b80156112675780601f1061123c57610100808354040283529160200191611267565b820191906000526020600020905b81548152906001019060200180831161124a57829003601f168201915b5050505050604051806020016040528060008152506118d1565b61129d5760405162461bcd60e51b81526004016105909061260c565b80600a83815481106112bf57634e487b7160e01b600052603260045260246000fd5b90600052602060002090600802016000019080519060200190610648929190611bd4565b6001600160e01b031981166301ffc9a760e01b14919050565b6000908152600260205260409020546001600160a01b0316151590565b3390565b600081815260046020526040902080546001600160a01b0319166001600160a01b038416908117909155819061135282610aef565b6001600160a01b03167f8c5be1e5ebec7d5bd14f71427d1e84f3dd0314c0f7b2291e5b200ac8c7c3b92560405160405180910390a45050565b6000611396826112fc565b6113b25760405162461bcd60e51b815260040161059090612268565b60006113bd83610aef565b9050806001600160a01b0316846001600160a01b031614806113f85750836001600160a01b03166113ed84610569565b6001600160a01b0316145b8061140857506114088185610f83565b949350505050565b826001600160a01b031661142382610aef565b6001600160a01b0316146114495760405162461bcd60e51b815260040161059090612533565b6001600160a01b03821661146f5760405162461bcd60e51b8152600401610590906121ca565b61147a83838361198f565b61148560008261131d565b6001600160a01b03831660009081526003602052604081208054600192906114ae908490612725565b90915550506001600160a01b03821660009081526003602052604081208054600192906114dc9084906126ae565b909155505060008181526002602052604080822080546001600160a01b0319166001600160a01b0386811691821790925591518493918716917fddf252ad1be2c89b69c2b068fc378daa952ba7f163c4a11628f55a4df523b3ef91a4505050565b600680546001600160a01b038381166001600160a01b0319831681179093556040519116919082907f8be0079c531659141344cd1fd0a4f28419497f9722a3daafe3b4186f6b6457e090600090a35050565b816001600160a01b0316836001600160a01b031614156115c15760405162461bcd60e51b81526004016105909061220e565b6001600160a01b0383811660008181526005602090815260408083209487168084529490915290819020805460ff1916851515179055517f17307eab39ab6107e8899845ad3d59bd9653f200f220920489ca2b5937696c319061162590859061200c565b60405180910390a3505050565b61163d848484611410565b611649848484846119a1565b610c5b5760405162461bcd60e51b8152600401610590906120b2565b610981828260405180602001604052806000815250611abc565b60408051602081019091526000815290565b6060816116b657506040805180820190915260018152600360fc1b60208201526104d2565b8160005b81156116e057806116ca816127c6565b91506116d99050600a836126c6565b91506116ba565b60008167ffffffffffffffff81111561170957634e487b7160e01b600052604160045260246000fd5b6040519080825280601f01601f191660200182016040528015611733576020820181803683370190505b5090505b841561140857611748600183612725565b9150611755600a86612825565b6117609060306126ae565b60f81b81838151811061178357634e487b7160e01b600052603260045260246000fd5b60200101906001600160f81b031916908160001a9053506117a5600a866126c6565b9450611737565b600080600a83815481106117d057634e487b7160e01b600052603260045260246000fd5b9060005260206000209060080201905042816007015482600501546117f591906126ae565b119392505050565b600042600a838154811061182157634e487b7160e01b600052603260045260246000fd5b90600052602060002090600802016006015411159050919050565b6000600a828154811061185f57634e487b7160e01b600052603260045260246000fd5b60009182526020909120600260089092020101546118859063ffffffff166102586126f9565b63ffffffff16905061189781426126ae565b600a83815481106118b857634e487b7160e01b600052603260045260246000fd5b9060005260206000209060080201600601819055505050565b81518151600091849184919081146118ef5760009350505050610fad565b60005b818110156119825782818151811061191a57634e487b7160e01b600052603260045260246000fd5b602001015160f81c60f81b6001600160f81b03191684828151811061194f57634e487b7160e01b600052603260045260246000fd5b01602001516001600160f81b03191614611970576000945050505050610fad565b8061197a816127c6565b9150506118f2565b5060019695505050505050565b611998816117ac565b61064857600080fd5b60006119b5846001600160a01b0316611aef565b15611ab157836001600160a01b031663150b7a026119d1611319565b8786866040518563ffffffff1660e01b81526004016119f39493929190611fcf565b602060405180830381600087803b158015611a0d57600080fd5b505af1925050508015611a3d575060408051601f3d908101601f19168201909252611a3a91810190611e92565b60015b611a97573d808015611a6b576040519150601f19603f3d011682016040523d82523d6000602084013e611a70565b606091505b508051611a8f5760405162461bcd60e51b8152600401610590906120b2565b805181602001fd5b6001600160e01b031916630a85bd0160e11b149050611408565b506001949350505050565b611ac68383611af5565b611ad360008484846119a1565b6106485760405162461bcd60e51b8152600401610590906120b2565b3b151590565b6001600160a01b038216611b1b5760405162461bcd60e51b81526004016105909061241d565b611b24816112fc565b15611b415760405162461bcd60e51b81526004016105909061214a565b611b4d6000838361198f565b6001600160a01b0382166000908152600360205260408120805460019290611b769084906126ae565b909155505060008181526002602052604080822080546001600160a01b0319166001600160a01b03861690811790915590518392907fddf252ad1be2c89b69c2b068fc378daa952ba7f163c4a11628f55a4df523b3ef908290a45050565b828054611be09061278b565b90600052602060002090601f016020900481019282611c025760008555611c48565b82601f10611c1b57805160ff1916838001178555611c48565b82800160010185558215611c48579182015b82811115611c48578251825591602001919060010190611c2d565b50611c54929150611c58565b5090565b5b80821115611c545760008155600101611c59565b600067ffffffffffffffff80841115611c8857611c88612865565b604051601f8501601f191681016020018281118282101715611cac57611cac612865565b604052848152915081838501861015611cc457600080fd5b8484602083013760006020868301015250509392505050565b80356001600160a01b03811681146104d257600080fd5b600082601f830112611d04578081fd5b610f7c83833560208501611c6d565b600060208284031215611d24578081fd5b610f7c82611cdd565b60008060408385031215611d3f578081fd5b611d4883611cdd565b9150611d5660208401611cdd565b90509250929050565b600080600060608486031215611d73578081fd5b611d7c84611cdd565b9250611d8a60208501611cdd565b9150604084013590509250925092565b60008060008060808587031215611daf578081fd5b611db885611cdd565b9350611dc660208601611cdd565b925060408501359150606085013567ffffffffffffffff811115611de8578182fd5b8501601f81018713611df8578182fd5b611e0787823560208401611c6d565b91505092959194509250565b60008060408385031215611e25578182fd5b611e2e83611cdd565b915060208301358015158114611e42578182fd5b809150509250929050565b60008060408385031215611e5f578182fd5b611e6883611cdd565b946020939093013593505050565b600060208284031215611e87578081fd5b8135610f7c8161287b565b600060208284031215611ea3578081fd5b8151610f7c8161287b565b600060208284031215611ebf578081fd5b813567ffffffffffffffff811115611ed5578182fd5b61140884828501611cf4565b600060208284031215611ef2578081fd5b5035919050565b60008060408385031215611f0b578182fd5b82359150611d5660208401611cdd565b60008060408385031215611f2d578182fd5b82359150602083013567ffffffffffffffff811115611f4a578182fd5b611f5685828601611cf4565b9150509250929050565b60008151808452611f7881602086016020860161275f565b601f01601f19169290920160200192915050565b60008351611f9e81846020880161275f565b835190830190611fb281836020880161275f565b01949350505050565b6001600160a01b0391909116815260200190565b6001600160a01b038581168252841660208201526040810183905260806060820181905260009061200290830184611f60565b9695505050505050565b901515815260200190565b600060208252610f7c6020830184611f60565b600061010080835261203e8184018c611f60565b602084019a909a52505063ffffffff9690961660408701526060860194909452608085019290925260a084015260c083015260e090910152919050565b60208082526019908201527f49276d207374696c6c2068756e67727920666f7220706f6f7000000000000000604082015260600190565b60208082526032908201527f4552433732313a207472616e7366657220746f206e6f6e20455243373231526560408201527131b2b4bb32b91034b6b83632b6b2b73a32b960711b606082015260800190565b60208082526026908201527f4f776e61626c653a206e6577206f776e657220697320746865207a65726f206160408201526564647265737360d01b606082015260800190565b6020808252601c908201527f4552433732313a20746f6b656e20616c7265616479206d696e74656400000000604082015260600190565b60208082526029908201527f3c3c3c20594f5520415245204e4f5420544845204f574e4552204f462054484960408201526829902822aa101f1f1f60b91b606082015260800190565b60208082526024908201527f4552433732313a207472616e7366657220746f20746865207a65726f206164646040820152637265737360e01b606082015260800190565b60208082526019908201527f4552433732313a20617070726f766520746f2063616c6c657200000000000000604082015260600190565b60208082526009908201526849276d2066756c6c2160b81b604082015260600190565b6020808252602c908201527f4552433732313a206f70657261746f7220717565727920666f72206e6f6e657860408201526b34b9ba32b73a103a37b5b2b760a11b606082015260800190565b6020808252601c908201527f49276d206e6f7420726561647920666f722067726f77696e6720757000000000604082015260600190565b60208082526038908201527f4552433732313a20617070726f76652063616c6c6572206973206e6f74206f7760408201527f6e6572206e6f7220617070726f76656420666f7220616c6c0000000000000000606082015260800190565b60208082526022908201527f3c3c3c20594f5520444f4e54204841564520454e4f55474820504f4f5053203e6040820152611f1f60f11b606082015260800190565b6020808252602a908201527f4552433732313a2062616c616e636520717565727920666f7220746865207a65604082015269726f206164647265737360b01b606082015260800190565b60208082526029908201527f4552433732313a206f776e657220717565727920666f72206e6f6e657869737460408201526832b73a103a37b5b2b760b91b606082015260800190565b6020808252818101527f4552433732313a206d696e7420746f20746865207a65726f2061646472657373604082015260600190565b6020808252602c908201527f4552433732313a20617070726f76656420717565727920666f72206e6f6e657860408201526b34b9ba32b73a103a37b5b2b760a11b606082015260800190565b6020808252600f908201526e49276d206e6f742068756e6772792160881b604082015260600190565b60208082526019908201527f3c3c3c20594f555220504554204841532044494544203e3e3e00000000000000604082015260600190565b6020808252818101527f4f776e61626c653a2063616c6c6572206973206e6f7420746865206f776e6572604082015260600190565b60208082526029908201527f4552433732313a207472616e73666572206f6620746f6b656e2074686174206960408201526839903737ba1037bbb760b91b606082015260800190565b6020808252602f908201527f4552433732314d657461646174613a2055524920717565727920666f72206e6f60408201526e3732bc34b9ba32b73a103a37b5b2b760891b606082015260800190565b60208082526021908201527f4552433732313a20617070726f76616c20746f2063757272656e74206f776e656040820152603960f91b606082015260800190565b60208082526015908201527449206861766520616c72656164792061206e616d6560581b604082015260600190565b60208082526031908201527f4552433732313a207472616e736665722063616c6c6572206973206e6f74206f6040820152701ddb995c881b9bdc88185c1c1c9bdd9959607a1b606082015260800190565b90815260200190565b6000838252604060208301526114086040830184611f60565b600082198211156126c1576126c1612839565b500190565b6000826126d5576126d561284f565b500490565b60008160001904831182151516156126f4576126f4612839565b500290565b600063ffffffff8083168185168183048111821515161561271c5761271c612839565b02949350505050565b60008282101561273757612737612839565b500390565b600060ff821660ff84168082101561275657612756612839565b90039392505050565b60005b8381101561277a578181015183820152602001612762565b83811115610c5b5750506000910152565b60028104600182168061279f57607f821691505b602082108114156127c057634e487b7160e01b600052602260045260246000fd5b50919050565b60006000198214156127da576127da612839565b5060010190565b600063ffffffff808316818114156127fb576127fb612839565b6001019392505050565b600060ff821660ff81141561281c5761281c612839565b60010192915050565b6000826128345761283461284f565b500690565b634e487b7160e01b600052601160045260246000fd5b634e487b7160e01b600052601260045260246000fd5b634e487b7160e01b600052604160045260246000fd5b6001600160e01b03198116811461102157600080fdfea2646970667358221220218efaac3b6d0778154252ea57799c66363fa5e04e8eb1b0e2100e7c63cca30464736f6c63430008000033",
    "sourcePath": "c:/Users/Alperen Berk/Desktop/Coding/Solidity/pet-game/contracts/petBase.sol",
    "compiler": {
        "name": "solc",
        "version": "0.8.0+commit.c7dfd78e"
    },
    "functionHashes": {
        "allPets(uint256)": "c81b43b1",
        "approve(address,uint256)": "095ea7b3",
        "balanceOf(address)": "70a08231",
        "feedPet(uint256)": "fbfabac4",
        "getApproved(uint256)": "081812fc",
        "isApprovedForAll(address,address)": "e985e9c5",
        "levelUp(uint256)": "0ce90ec2",
        "name()": "06fdde03",
        "newPet(string)": "c47d7ce6",
        "newPetFromPoop()": "0cf9b872",
        "owner()": "8da5cb5b",
        "ownerOf(uint256)": "6352211e",
        "petPoop(uint256)": "525a77b3",
        "renounceOwnership()": "715018a6",
        "safeTransferFrom(address,address,uint256)": "42842e0e",
        "safeTransferFrom(address,address,uint256,bytes)": "b88d4fde",
        "sellPet(uint256,address)": "329461b0",
        "sellPoop()": "66203c4f",
        "setApprovalForAll(address,bool)": "a22cb465",
        "setName(uint256,string)": "fe55932a",
        "supportsInterface(bytes4)": "01ffc9a7",
        "symbol()": "95d89b41",
        "tokenURI(uint256)": "c87b56dd",
        "transferFrom(address,address,uint256)": "23b872dd",
        "transferOwnership(address)": "f2fde38b"
    },
    "gasEstimates": {
        "creation": {
            "codeDepositCost": "2087800",
            "executionCost": "infinite",
            "totalCost": "infinite"
        },
        "external": {
            "allPets(uint256)": "infinite",
            "approve(address,uint256)": "infinite",
            "balanceOf(address)": "1333",
            "feedPet(uint256)": "infinite",
            "getApproved(uint256)": "2223",
            "isApprovedForAll(address,address)": "infinite",
            "levelUp(uint256)": "71499",
            "name()": "infinite",
            "newPet(string)": "infinite",
            "newPetFromPoop()": "infinite",
            "owner()": "1137",
            "ownerOf(uint256)": "1388",
            "petPoop(uint256)": "infinite",
            "renounceOwnership()": "23552",
            "safeTransferFrom(address,address,uint256)": "infinite",
            "safeTransferFrom(address,address,uint256,bytes)": "infinite",
            "sellPet(uint256,address)": "1428",
            "sellPoop()": "1332",
            "setApprovalForAll(address,bool)": "23460",
            "setName(uint256,string)": "infinite",
            "supportsInterface(bytes4)": "604",
            "symbol()": "infinite",
            "tokenURI(uint256)": "infinite",
            "transferFrom(address,address,uint256)": "infinite",
            "transferOwnership(address)": "23768"
        },
        "internal": {
            "_beforeTokenTransfer(address,address,uint256)": "2669",
            "_triggerFeedingCooldown(uint256)": "22841",
            "isDead(uint256)": "2629",
            "isReadyToFeed(uint256)": "1736",
            "stringsEquals(string memory,string memory)": "infinite"
        }
    }
}